:020000040800F2
:100000000050002021020008270200082B020008EF
:100010009D020008A1020008E9020008000000009B
:100020000000000000000000000000003103000894
:100030003503000800000000390300083D030008F4
:100040004D0300084D0300084D0300084D03000850
:100050004D0300084D0300084D0300084D03000840
:100060004D0300084D0300084D0300084D03000830
:100070004D0300084D0300084D0300084D03000820
:100080004D0300084D0300084D0300084D03000810
:100090004D0300084D0300084D0300084D03000800
:1000A0004D0300084D0300084D0300084D030008F0
:1000B0004D0300084D0300084D0300084D030008E0
:1000C0004D0300084D0300084D0300084D030008D0
:1000D0004D0300084D0300084D0300084D030008C0
:1000E0004D0300084D0300084D0300080000000008
:1000F0000000000000000000000000000000000000
:1001000000000000000000005FF808F100B583B0B7
:1001100000F0AAF9304B314A1360314A1360314B79
:10012000314A32498B4204D21168196004330432D7
:10013000F7E72A4B1A682E4B9A4200D0FEE7284B6D
:100140001A682C4B9A42F9D1234B2B4A13602B4A45
:1001500013602B4B02E000221A600433294A9342B9
:10016000F9D3254B1B6813B9244B1B6803B1FEE779
:1001700000F086F9694601A800F022F9224C234BD1
:10018000E41AA4100025AC4214DC214C214BE41AE3
:10019000A4100025AC4213DC0099019800F0AAFEDF
:1001A00005461D4C1D4BE41AA410002C0EDC2846FD
:1001B00000F0E2F8154B53F8253098470135E2E797
:1001C000144B53F8253098470135E3E7013C134BB6
:1001D00053F824309847E8E7BABADECA0000002096
:1001E000F401002000000020A0550008F8010020C4
:1001F0007856341232547698F8010020900200208C
:10020000F801002094020020780300087803000819
:1002100078030008780300087803000878030008D2
:1002200008B5FFF773FF00BEFEE71EF0040F0CBF1A
:10023000EFF30880EFF309807146414A10472DE93A
:10024000F04182B004468846124B5E6B9F6B9D6AFC
:100250001B6B13F0020F03D00E4BDB6A002B0CDB81
:100260000D4800F0B5F8CDF800803B4632462946EF
:10027000204600F009F900BEFEE74BF6AB6100F046
:100280007DF90028ECD0034B4FF00042DA6202B057
:10029000BDE8F08100ED00E05C51000800BEFEE723
:1002A0001EF0040F0CBFEFF30880EFF309807146D6
:1002B000244A10472DE9F04182B004468846084B95
:1002C0005E6B9F6B9D6A074800F082F8CDF8008056
:1002D0003B4632462946204600F0D6F800BEFEE7EF
:1002E00000ED00E06C5100081EF0040F0CBFEFF3AE
:1002F0000880EFF309807146134A10472DE9F04159
:1003000082B004468846084B5E6B9F6B9D6A074827
:1003100000F05EF8CDF800803B4632462946204684
:1003200000F0B2F800BEFEE700ED00E078510008F2
:1003300000BEFEE700BEFEE700BEFEE7704700001D
:100340003F020008B5020008FD02000800BEFEE7FB
:10035000A055000800000020F8010020A05500086A
:100360000000000000000000F801002094020020BE
:08037000000000000000000085
:10037800FEE7000008B503460C4A12685AB10B4A5A
:100388001068033323F003030344094A934206D851
:10039800064A136008BD054A06491160EFE702F0F6
:1003A8003DFC0C2303604FF0FF30F3E7FC01002015
:1003B800004C00209402002001230360014B0B60D5
:1003C800704700BF040000200FB400B583B004AB31
:1003D80053F8042B01938021064803F0A3FA002860
:1003E80003DD0146034800F037F803B05DF804EB7D
:1003F80004B07047040200202DE9F04385B004469C
:100408000F4643560BB10E461EE0042528462146EA
:10041800ABBE0446384605B0BDE8F08314F9011BAD
:1004280004AA1A4402F8101C0133AB42F6D304AAFA
:100438001344002203F8102C4FF00408E946404604
:100448004946ABBE8046761B002EE3D03546102EBB
:1004580028BF10250023E8E708B5FFF7CDFF08BD42
:1004680008B500F0FDF8024A024B9A6008BD00BFCB
:100478000000000800ED00E008B500F019F908BD1B
:10048800F8B504460D4617461E462748FFF79CFF59
:1004980021682648FFF798FF61682548FFF794FF11
:1004A800A1682448FFF790FFE1682348FFF78CFF15
:1004B80021692248FFF788FF61692148FFF784FF17
:1004C800A1692048FFF780FFE1691F48FFF77CFF1B
:1004D8001E48FFF779FF29461D48FFF775FF1D4C99
:1004E800E16A1D48FFF770FF216B1C48FFF76CFF9E
:1004F800E16B1B48FFF768FF15F0800F0AD115F470
:10050800004F0CD11748FFF75FFF06991648FFF711
:100518005BFFF8BD39461548FFF756FFEFE7314650
:100528001348FFF751FFEDE740500008505000080E
:100538006050000870500008805000089050000873
:10054800A0500008B0500008C0500008D050000863
:10055800DC50000800ED00E0EC500008FC500008FA
:100568000C5100083C510008445100081C51000877
:100578002C51000883691A888A4201D000207047EC
:100588000268033A012A03D80233836101207047C5
:100598000020704782B00023019300932C4A13680F
:1005A80043F4803313602A4B1B6803F40033009331
:1005B800019B01330193009B1BB9019BB3F5A06F0D
:1005C800F1D1234B1B6813F4003F06D0012300939D
:1005D800009B012B04D002B0704700230093F7E77B
:1005E8001C4B1A6842F010021A601A6822F00302C3
:1005F8001A601A6842F002021A60A3F580535A681A
:100608005A605A685A605A6842F480625A605A6856
:1006180022F47C125A605A6842F4E8125A601A6846
:1006280042F080721A600A4B1B6813F0007FFAD000
:10063800074B5A6822F003025A605A6842F00202D5
:100648005A60034B5B6803F00C03082BF9D1C2E72F
:10065800001002400020024008B5FFF79BFF08BDCC
:1006680008B5104B1A6842F001021A6059680E4A20
:100678000A405A601A6822F0847222F480321A60A2
:100688001A6822F480221A605A6822F4FE025A601C
:100698004FF41F029A60FFF7DFFF044B4FF0006230
:1006A8009A6008BD001002400000FFF800ED00E06D
:1006B8001F4B5B6803F00C03042B15D0082B17D0D5
:1006C8001BB11C4B1C4A1A6002E01A4B1A4A1A60EA
:1006D800174B5B68C3F30313184AD35CDAB21549A6
:1006E8000B68D3400B607047124B134A1A60EFE750
:1006F8000F4A53685268C3F38343023312F4803FAE
:100708000AD00B4A526812F4003F0BD00C4A02FB85
:1007180003F3084A1360DBE7094A02FB03F3054ABF
:100728001360D5E7044A02FB03F3024A1360CFE7DC
:10073800001002401C00002000127A000C0000206B
:1007480000093D0008B5024800F0DCFA08BD00BF0A
:100758002C52000830B59BB005466422002101A840
:1007680002F062FA00200446FF2809D0284600F06B
:10077800DBFA1AAB234403F8640C0134E4B2F3E760
:100788000020034601E00133DBB21A46611E8B42AA
:1007980012DA1AA9194411F8641C4F29F3D101324D
:1007A8001AA90A4412F8642C4B2AECD10130C0B2C1
:1007B8000228E8D1012000E000201BB030BD000075
:1007C80038B504460D460E4800F09CFA284600F05D
:1007D80099FA0C4800F096FA4FF4967000F07AFBFC
:1007E800094800F08FFA204600F08CFA074800F01C
:1007F80089FA074800F086FA0648FFF7ABFF38BDCC
:100808000852000804520008145200082452000834
:1008180028520008E09304002DE9F041C0B00546D5
:10082800962200211AA802F0FFF93D4A01AB07CA37
:1008380003C31A705B2200210DF10D0002F0F4F9D8
:100848000020044608E0284600F06EFA40AB234436
:1008580003F8980C0134E4B2FF28F4D10027BE460F
:10086800BC463D463E463B461FE0481C0DF5807899
:10087800404410F8980C742821D105BB08E006F113
:1008880008000DF58078404400F8FC5C0136F6B2AB
:10089800C81C304440AD284410F8985C202DEED197
:1008A80001250CE0AC460133DBB21946621E9342C7
:1008B80011DA40AA1A4412F8982C612AD5D0002DD2
:1008C800F1D0472AEED0522A03D0592AEBD12F462D
:1008D800E9E7AE46E7E7BCF1010F0DD0012F10D0D4
:1008E800BEF1010F12D00F4901A802F0A5F995B980
:1008F800284640B0BDE8F0810B4901A802F09CF9F8
:10090800F1E70A4901A802F097F9ECE7084901A8BC
:1009180002F092F9E7E701A800F05EFAE8E700BF05
:100928008851000884520008685200087052000874
:100938007C52000810B504460B4800F0E3F9204645
:1009480000F0E0F9094800F0DDF94FF4967000F086
:10095800C1FA074800F0D6F9064800F0D3F906486E
:10096800FFF75AFF10BD00BF0852000804520008E4
:100978003452000828520008E093040030B59BB0B8
:1009880005466422002101A802F04EF90020044621
:10099800FF2809D0284600F0C7F91AAB234403F80A
:1009A800640C0134E4B2F3E700230AE0481C1AADF2
:1009B800284410F8640C4B280DD101201DE00133A8
:1009C800DBB21946621E934216DA1AAA1A4412F8C2
:1009D800642C4F2AEAD0412AF1D14A1C1AA80244B1
:1009E80012F8642C4C2AEAD10231014411F8642C23
:1009F800522AE4D1012000E000201BB030BD0000E5
:100A080010B5044600200CE0074800F07BF92046AA
:100A180000F078F9054800F075F941F27070FFF7B9
:100A2800ADFF0028F0D010BDEC51000800520008BE
:100A380010B4012827D018B1022847D010BC70473D
:100A4800072912D90F29F9D8A1F10804E4B2314BCA
:100A58005968A4000F20A04021EA00015960586895
:100A680002FA04F101435960E8E72A4B1868890043
:100A78000F248C4020EA04001860186802FA01F17B
:100A880001431960DAE7072912D90F29D6D8A1F14D
:100A98000800C0B2204B596880000F24844021EA26
:100AA800040159605C6802FA00F121435960C5E706
:100AB800194B186889000F248C4020EA040018603C
:100AC800186802FA01F101431960B7E7072912D93A
:100AD8000F29B3D8A1F10803DBB2104841689B0085
:100AE8000F249C4021EA04014160446802FA03F1A2
:100AF80021434160A2E7094B186889000F248C4004
:100B080020EA04001860186802FA01F1014319602C
:100B180094E700BF00080140000C014000100140AC
:100B2800F8B506460F4600220D4B01F0C5FE00F051
:100B38006FFA04460D460022094B01F093FD024668
:100B48000B463046394601F0D5FB0022054B01F033
:100B5800B3FE02460B462046294601F0CDFBF8BD00
:100B68000000594000004E402DE9F04786B082460B
:100B78000D46002303930493ADF8143000930193BA
:100B8800CDF8073000F0FAF82428FBD100F0F6F889
:100B98004728F7D100F0F2F84E28F3D100F0EEF82C
:100BA8005228EFD100F0EAF84D28EBD100F0E6F832
:100BB8004328E7D1002403E000F0E0F80134E4B270
:100BC8000A2CF9D900F0DAF84128DBD100F0D6F880
:100BD8000024092C1ED90024022C24D900240A2C14
:100BE80026D903A802F016F880468946684602F01E
:100BF80011F806460F4640464946FFF791FFCAE9F5
:100C0800000130463946FFF78BFFC5E9000106B001
:100C1800BDE8F08700F0B2F806AB234403F80C0CEB
:100C28000134E4B2D5E700F0A9F80134E4B2D3E71F
:100C380000F0A4F806AB234403F8180C0134E4B21E
:100C4800CDE70000034B4FF480321A6001225A604E
:100C5800704700BF001002401F291CD801280BD084
:100C680010B1022810D070470B484369012202FADC
:100C780001F11943416170470748C369012202FA2B
:100C880001F11943C161704703488369012202FADF
:100C980001F119438161704700100240064B1A6840
:100CA80022F004021A601A6822F001021A601A6817
:100CB80022F002021A60704710E000E0064B58600C
:100CC80000229A601A6842F001021A60024B1B68FF
:100CD80013F4803FFAD0704710E000E0084B45223B
:100CE8009A60DA6842F40052DA60DA6842F0080280
:100CF800DA60DA6842F00402DA6000221A607047AB
:100D080000380140002208E006494B60054B1B688B
:100D180013F0400FFAD00132D2B2835C002BF3D12A
:100D2800704700BF00380140002300E00133074A44
:100D3800126812F0200F01D18342F7D3834203D007
:100D4800024B5868C0B27047FF2070470038014016
:100D5800094B40F241329A60DA6842F40052DA6094
:100D6800DA6842F00802DA60DA6842F00402DA600F
:100D780000221A60704700BF0044004000230A4A5E
:100D8800126812F0200F05D1B3F5487F02D2013363
:100D98009BB2F4E7B3F5487F03D0034B5868C0B261
:100DA8007047FF20704700BF00440040094B40F2E5
:100DB80041329A60DA6842F40052DA60DA6842F046
:100DC8000802DA60DA6842F00402DA6000221A6087
:100DD800704700BF00480040002208E006494B6009
:100DE800054B1B6813F0400FFAD00132D2B2835C76
:100DF800002BF3D1704700BF0048004001390023A1
:100E08008B420ADA10B4C2564456C45442540133D1
:100E180001398B42F7DB10BC7047704770B50D463F
:100E280000240EE00F4981FB0031C317C3EBA10377
:100E38001E4603EB83035900431A30332B553046C3
:100E480001340028EED102E030232B5501349442BE
:100E5800FADB21462846FFF7D1FF00232B55204611
:100E680070BD00BF676666662DE970438046894697
:100E780014461D4601F0A6FE064601F089FB02460F
:100E88000B464046494601F035FA8046894600221D
:100E980021463046FFF7C2FF0DB9BDE8708306460C
:100EA8002E232354284601F073FB02460B460020EC
:100EB800074900F031F942464B4601F0D3FB0136B1
:100EC800344401F07FFE2A462146FFF7A7FFE4E7F6
:100ED8000000244010B50446FFF7E0FE4FF47A7096
:100EE80000FB04F0FFF7EAFE10BD000030B59BB030
:100EF800FFF7A8FE02210846FFF7AEFE03210220F5
:100F0800FFF7AAFE0E210220FFF7A6FE11210120FD
:100F1800FFF7A2FE12210120FFF79EFEFFF7DEFE7B
:100F28000B2209210020FFF783FD04220A2100205B
:100F3800FFF77EFDFFF70CFF0B2202210020FFF7D1
:100F480077FD042203210020FFF772FDFFF72EFF33
:100F58000B220A210120FFF76BFD04220B2101203F
:100F6800FFF766FDFFF7EEFB12E02448FFF748FDA8
:100F7800234901A8FFF724FC0028F6D0002005E04B
:100F88001E48FFF73DFD1F48FFF7D4FC0028F7D0A7
:100F980001AC1D4D0FCD0FC40FCD0FC42B6824F825
:100FA800023B1B0C23700024CDF82740CDF82B40C2
:100FB800CDF82F40CDF83340CDF83740CDF83A4042
:100FC80016A918A8FFF7D0FD072313AADDE9180111
:100FD800FFF74AFF072310AADDE91601FFF744FFD0
:100FE80013A901A801F028FE084901A801F024FE70
:100FF80010A901A801F020FE2046BDE7C85200084C
:10100800E0520008E452000888520008C452000860
:10101800C1F30A522DE9F843A2F2FF36132E0B460C
:101028000D460446884607461DDC002E3DDB384A3F
:1010380042FA06F901EA0902024319D032A3D3E9B8
:10104800002301F059F90022002301F09BFDD0B3E1
:10105800002D04DA4FF4801343FA06F6B04428EA68
:10106800090500272FE0332E06DDB6F5806F2FD057
:1010780019462046BDE8F8834FF0FF39A2F2134223
:1010880029FA02F919EA000FF2D01FA3D3E90023C5
:1010980001F032F90022002301F074FD98B1002D0F
:1010A80024DB27EA090745460DE017A3D3E9002307
:1010B80001F022F90022002301F064FD18B1002D8F
:1010C8000BDB00273D463C4629462046BDE8F88311
:1010D800024601F011F90446CBE725F000430D4A1A
:1010E8001F43002F18BF15460027ECE7142E08D021
:1010F8000123C6F1340603FA06F6371928BF9844C7
:10110800CFE705F10108CCE79C7500883CE4377E01
:10111800FFFF0F000000F0BF2DE9F04F8DB006462D
:101128000F4614461D4600F093F9DFF81493CDE9F5
:10113800000199F90080B8F1FF3F36D022462B46CE
:101148002046294601F028FD834670BB32463B46BF
:101158003046394601F020FD8246002840F0AD8037
:10116800304639460022002301F0E4FC10B3002287
:1011780000232046294601F0DDFC8346002869D07B
:10118800012200200021A94BCDF828A0CDE9046751
:10119800CDE90645CDE90801CDE90223B8F1000FF4
:1011A80042D00023A24CCDE90034DDE900010DB0A6
:1011B800BDE8F08FDDE9000100F082FF80460028DD
:1011C80000F09880DDE900014FF0000A4FF0000BB5
:1011D80052465B4601F0AEFC0028E6D03046394660
:1011E80000F06EFF0028E0D02046294600F068FF96
:1011F8000028DAD00420002199F900308B4A022B0C
:10120800CDE90467CDE90645CDE908AB02900A911E
:10121800039204D002A800F059FF002842D101F03F
:10122800FDFC222303603DE002A800F04FFF0028E8
:1012380000F0B3800A9B002B3AD001F0EFFCDDE907
:101248000834CDE900340A9B0360DDE900010DB0E4
:10125800BDE8F08F2046294600F032FF0028A4D0D0
:10126800002200232046294601F06EFC00289CD06D
:1012780001216E4A99F90030CDF828B0CDE904670C
:10128800CDE90645CDE90212002B00F08B80002045
:101298006849022BCDE9080140F0888001F0BEFCC6
:1012A800212303600A9B1BB101F0B8FC0A9B036071
:1012B800DDE90834CDE9003477E700220023204631
:1012C800294601F037FC00283FF46FAF01200022C7
:1012D800574B5649B8F1020FCDF828B0CDE904674D
:1012E800CDE906450290CDE9082303919CD1CDE9CB
:1012F80000235AE73046394600F0E2FE00283FF462
:1013080061AF2046294600F0DBFE00283FF45AAFC3
:10131800DDE900231046194601F03EFC99F900A0CA
:10132800002868D10323DFF804C10A902946204623
:1013380002930022404BCDE90645CDE90467CDF87C
:101348000CC001F08FF904460D46BAF1000F34D1F4
:101358004FF0604ADFF8ECB00022002330463946EF
:10136800CDE908AB01F0F0FB00283FF453AF20466D
:10137800294600F0B3FE22462B4601F0DBFB00288D
:1013880036D14FF060422D4B99F900A0CDE90823E2
:10139800BAF1020F3FF443AF3CE701F03FFC2123D1
:1013A800036047E700230024CDE9083402A800F0D1
:1013B8008DFE00287FF476AF70E74FF0000BDFF862
:1013C80088C00022002330463946CDE908BC01F028
:1013D800BBFB0028DCD02046294600F07FFE2246D1
:1013E8002B4601F0A7FB18B90022124BCDE90823C0
:1013F80099F900A0CCE701220C4BCDF82880CDE963
:101408000467CDE90645CDE90223BAF1000FC9D03A
:10141800002200231046194601F04EFABAF1020FD5
:10142800CDE908013FF43AAFC0E700BFE852000831
:101438000000F03F0000F0FF0000E03FFFFFEFC7B3
:1014480020000020FFFFEF470000F07F00000000B1
:101458002DE9F04F23F0004555EA020493B00DD072
:10146800794E21F00044B4420F4682460FDD04F164
:10147800404404F5801454EA0A035BD10023734CFA
:10148800CDE90034DDE9000113B0BDE8F08F9846DE
:1014980094464ED0B542EADC6B4EB54266D0002F7A
:1014A8008B468146CDE9022364DB0026BCF1000FA0
:1014B8000ED1654B9D4246D0644B9D4200F097800B
:1014C800B8F1804F00F0B280614B984500F0D283AC
:1014D8004846594600F0F0FDCDE90001BAF1000F89
:1014E80006D1002C60D0594B27F040429A425BD07D
:1014F800FF0F013F56EA070300F08280554B9D42DB
:1015080040F3B08003F104739D4240F34E84524B84
:101518009C4240F38280B8F1000F40F3828048A3D8
:10152800D3E900231046194601F09CF8CDE90001E3
:10153800A8E728B1494813B0BDE8F04F00F0C8BD8E
:10154800A542F7DCA8E704F1404303F5801353EA0A
:101558000A0393D0404B9C4240F39683B8F1000FA6
:101568005FDBDDE90234CDE900348BE7BCF1000F25
:1015780095D07CE73A4B9D4237DCA3F154739D42EA
:1015880093DD2B15A3F2FF33142B40F3ED83C3F146
:1015980034032CFA03F202FA03F3634585D102F00F
:1015A8000102C2F1020681E7B8F1000F07DADDE9AE
:1015B80000230020254901F07FF9CDE90001002F23
:1015C800BFF660AF04F1404404F5801454EA060302
:1015D80000F04984012E7FF455AFDDE9004522462D
:1015E80005F10043CDE900234CE702265EE7B8F198
:1015F800000FC0F2558348465946CDE9000141E73E
:101608004A4648465B46594600F074FE02460B4679
:1016180001F052F9CDE9000134E7B8F1000FFFF607
:101628007EAF00230024CDE900342BE74A46484624
:101638005B46594601F016F8CDE9000122E700BFE4
:101648009C7500883CE4377E0000F07F0000F03F86
:101658000000E03F0000E041FFFFEF3F5C50000862
:10166800FFFF3F43B4F5801F80F29C83DDE9000152
:101678000022D14B00F0F6FF6FF0340C0C46CDE998
:1016880000012315CD4AC4F31304A3F2FF3344F039
:101698007F5503EB0C0194420D9145F4401540F33E
:1016A8007383C74B9C4240F300840023002400222C
:1016B800CDE90A34CDE910340024C24B0131CDE91B
:1016C80006230D91A5F58015DDE906ABDDE90001DE
:1016D80052465B462946804600F00CFE5246CDE94C
:1016E80008015B4640462946CDE906AB00F004FEFA
:1016F80002460B460020B34901F0DEF80A460146CF
:101708001346CDE90E120246DDE9080100F0AAFFF2
:101718000A4683469446002301460020CDE900BCD2
:1017280000936B1043F0005303F50023CDE9041236
:10173800DDE900AB1919A94604460D4602460B46D9
:101748005046594600F08EFF02460B46DDE9080177
:1017580000F0D0FDDDE90623CDE908012046294641
:1017680000F0C8FD02460B464046494600F0C2FD5F
:1017780052465B4600F076FF02460B46DDE908015B
:1017880000F0B8FDDDE90E2300F06CFFDDE904454B
:10179800CDE9060122462B462046294600F062FF85
:1017A80073A3D3E9002304460D4600F05BFF72A340
:1017B800D3E9002300F0A0FD22462B4600F052FF9B
:1017C8006FA3D3E9002300F097FD22462B4600F0D3
:1017D80049FF6DA3D3E9002300F08EFD22462B4676
:1017E80000F040FF6AA3D3E9002300F085FD2246FC
:1017F8002B4600F037FF68A3D3E9002300F07CFDF7
:101808002246804689462B462046294600F02AFF74
:1018180002460B464046494600F024FF04460D4662
:10182800DDE9040152465B4600F066FDDDE906236A
:1018380000F018FF22462B4600F05EFD5246804617
:1018480089465B465046594600F00CFF00225E4B25
:10185800CDE9080100F050FD42464B4600F04CFD32
:1018680000980D4604462B4622465046594600F03D
:10187800F9FE002282468B46534B2046294600F04B
:1018880039FDDDE9082300F035FD02460B464046E8
:10189800494600F02FFDDDE9042300F0E3FE22466F
:1018A80080468946DDE906012B4600F0DBFE02464C
:1018B8000B464046494600F01FFD804689460246D1
:1018C8000B465046594600F017FD35A3D3E90023CF
:1018D80000980D46044600F0C5FE5246CDE90401C5
:1018E8005B462046294600F005FD02460B46404669
:1018F800494600F0FFFC2CA3D3E9002300F0B2FE18
:101908002BA3D3E90023804689462046294600F0C8
:10191800A9FE02460B464046494600F0EDFCDDE9CB
:10192800102300F0E9FC80460D98894600F030FE4F
:1019380082468B46DDE9040142464B4600F0DCFC5A
:10194800DDE90A2300F0D8FC52465B4600F0D4FCDF
:10195800009852465B4604460D4600F0CBFCDDE994
:101968000A2300F0C7FCDDE904232FE0AFF3008071
:10197800EF4E454A287ECA3F65DBC9934A86CD3F6C
:1019880001411DA96074D13F4D268F515555D53F52
:10199800FFAB6FDBB66DDB3F033333333333E33FEA
:1019A800000000E009C7EE3FFD033ADC09C7EE3F3F
:1019B800F5015B14E02F3EBE000040438E98030003
:1019C80079B60B000000F03F0000084000F092FCE0
:1019D8000B4602464946404600F08CFC0022013E78
:1019E80056EA070314BFDA4BDA4B8B46CDE90423DA
:1019F800DDE9021200230E461746CDE90067009381
:101A0800DDE9006782463B4608461146324600F04B
:101A180071FC22462B4600F025FEDDE902238046B4
:101A280089465046594600F01DFE02460B46404680
:101A3800494600F061FC8046894632463B462046CE
:101A48002946CDE9028900F00DFE0B4602460646FE
:101A58000F464046494600F04FFCBF4B04469942AA
:101A68000D468A4640F3268101F13F4303F5E00322
:101A7800034340F0FE81A2A3D3E90023DDE902017C
:101A880000F03AFC3246804689463B4620462946C5
:101A980000F030FC02460B464046494601F072F819
:101AA800002840F0E681A8464FF4801300204FEA52
:101AB8002852A2F2FE3213415344C3F30A52A74DEF
:101AC800A2F2FF321541C3F3130423EA0501C2F160
:101AD800140B44F48014BAF1000F02460B4644FA82
:101AE8000BFB30463946B8BFCBF1000B00F002FCC7
:101AF80006460F46DDE9020132463B4600F0FCFB94
:101B08000D464FEA0B5A00247FA3D3E90023204651
:101B1800294600F0A7FD3246804689463B462046C6
:101B2800294600F0E7FB02460B46DDE9020100F01A
:101B3800E1FB77A3D3E9002300F094FD76A3D3E972
:101B4800002306460F462046294600F08BFD024634
:101B58000B463046394600F0CFFB06460F46024694
:101B68000B464046494600F0C7FB42464B460446F2
:101B78000D4600F0BFFB02460B463046394600F0E2
:101B8800B9FB2246804689462B462046294600F066
:101B980069FD63A3D3E9002306460F4600F062FD02
:101BA80061A3D3E9002300F0A5FB32463B4600F0D1
:101BB80059FD5FA3D3E9002300F09EFB32463B4664
:101BC80000F050FD5CA3D3E9002300F093FB3246FC
:101BD8003B4600F047FD5AA3D3E9002300F08CFBF5
:101BE80032463B4600F03EFD02460B46204629465B
:101BF80000F080FB06460F4602460B462046294663
:101C080000F030FD0022CDE900014FF0804330465E
:101C1800394600F06FFB02460B46DDE9000100F093
:101C28004BFE424606460F464B462046294600F0E4
:101C380019FD42464B4600F05FFB02460B46304614
:101C4800394600F057FB22462B4600F053FB02466C
:101C58000B4600203E4900F04DFB8A44BAF5801F30
:101C6800C0F235815146DDE9042300F0FBFCCDE9E3
:101C7800000107E4002FFFF62BAC4846594613B085
:101C8800BDE8F04F00F056B9B8F1000FBFF6C9AC87
:101C9800DDE90234009304F100430193FFF7F2BB3E
:101CA8004A465B4600202A4900F006FECDE90001BD
:101CB800FFF7E8BB2A4B21F00048984540F3E9803C
:101CC800284B0B4403430AD132463B4600F012FB33
:101CD800DDE9022300F04CFF00283FF4E5AE1AA32B
:101CE800D3E90023DDE9040100F0BCFC16A3D3E925
:101CF800002300F0B7FCCDE90001FFF7C3BB00BF2C
:101D0800FE822B654715973C00000000432EE63FF6
:101D1800EF39FAFE422EE63F396CA80C615C20BE12
:101D2800D0A4BE726937663EF16BD2C541BDBB3ED9
:101D38002CDE25AF6A56113F93BDBE166CC1663FB7
:101D48003E5555555555C53F59F3F8C21F6EA50167
:101D58000000F03F0000F0BFFFFF8F40FFFF0F00C3
:101D6800FFCB904000346F3FBCF1000F40F09A80E9
:101D7800C3F1140345FA03F202FA03F3AB4200F08D
:101D8800AA806646FFF798BB002300241A4623461C
:101D9800CDE90A23CDE910230022614B0024CDE9C7
:101DA800062391E44FF0000C6BE45E4B9C427FF7F6
:101DB80034AC5B4B9C423FF7AEABDDE9000100223F
:101DC800574B00F097FA48A3D3E9002304460D4681
:101DD80000F048FC46A3D3E9002382468B46204600
:101DE800294600F03FFC0022CDE900014E4B204679
:101DF800294600F037FC02460B463FA1D1E9000115
:101E080000F078FA22462B4600F02CFC02460B46DE
:101E18000020464900F06EFA2246804689462B4645
:101E28002046294600F01EFC02460B46404649461D
:101E380000F018FC32A3D3E9002300F013FC02469B
:101E48000B46DDE9000100F055FA02460B468046D4
:101E580089465046594600F04FFA00200D46044680
:101E680052465B46B2E5DDE9002310461946FFF706
:101E7800CBBB25A3D3E90023DDE9040100F0F2FB85
:101E880021A3D3E9002300F0EDFBCDE90001FFF722
:101E9800F9BA264B98453FF707AEDDE9002392468D
:101EA800934630E60026FFF713BB19A3D3E90023B6
:101EB800CDE90A2318A3D3E90023CDE91023002292
:101EC8001B4B4FF48024CDE90623FFF7FDBB5A4690
:101ED80000F092F9C7E602F00102C2F10206FFF72C
:101EE800EBBA00BFAFF30080000000604715F73F72
:101EF80044DF5DF80BAE543E555555555555D53F05
:101F0800FE822B654715F73F9C7500883CE4377EB9
:101F18000000004003B8E23F06D0CF43EBFD4C3E43
:101F28000000F03FFEFFEF3F0000D03F0000E03F21
:101F38000000F83F5F4A2DE9F0418A430D46074605
:101F480000F0948000290B460446064654DD0F1520
:101F580000F0A780C3F31303A7F2FF3743F48013FD
:101F6800F20FF80702EB43034FEA460503D5ED0FDE
:101F780005EB4303B50000261622B4464FF40011C2
:101F88007F100CEB010098424FEAD5744FEA4505E3
:101F980003DC1B1A00EB010C0E44013A04EB43036B
:101FA8004FEA5101EDD11046964620244FF00042E9
:101FB80009E052D05B00013C03EBD5734FEA5202B3
:101FC8004FEA450537D0634502EB0E01F1DD0029E4
:101FD80001EB020E0ADBE046A3EB0C03A94288BF23
:101FE80003F1FF33C4466D1A1044E3E7BEF1000F56
:101FF800F1DB0CF10108EFE721F00042024329D0A0
:10200800002945D10146CA0A153B4905002AFAD0DC
:1020180012F4801001D048E030465200D40200F19A
:102028000106F9D5C6F1200401FA06F6E1401F1AA7
:1020380041EA02038EE72B4324D14408731003F1CD
:102048007F53F20703F5001348BF44F0004403EB45
:10205800075127463846BDE8F081A942AAD8002989
:1020680001EB020EC2DB98460023BBE702460B4693
:1020780000F0F8FA3A462B4600F03EF90746384693
:10208800BDE8F081411C16BF421C01365408D5E753
:10209800024600F02FF902460B4600F00DFC0746F9
:1020A800D8E71A4621463B46B2E70E4620244FF0B1
:1020B800FF30BBE70000F07F21F00043194670476E
:1020C80041F0004101F58010C00F704700207047B3
:1020D80000200149704700BF0000F87F2DE9F0415A
:1020E800C1F30A57A7F2FF35132D82B002460B46FB
:1020F8000C464FEAD178064632DC002D4DDB3B49D1
:10210800294103EA0100104325D049080B4052EA4F
:1021180003060BD04FF48023132D0CBF4FF000465D
:10212800002624EA010143FA05F40C43304923460A
:1021380001EBC808D8E9004532462046294600F098
:10214800DBF8CDE90001DDE9000122462B4600F06D
:10215800D1F802460B461046194602B0BDE8F08198
:10216800332D07DDB5F5806FF5D100F0C5F80246CF
:102178000B46F0E74FF0FF31A7F21347F94008424A
:10218800E9D049080842D1D04FF0804320EA010144
:1021980043FA07F741EA0706C8E721F0004101437F
:1021A800D9D0C3F313031E4373423343640C1B0B90
:1021B800640403F4002343EA04010B460C4901EBD1
:1021C800C801D1E900452046294600F095F8CDE937
:1021D8000001DDE9000122462B4600F08BF821F0D2
:1021E8000041024641EAC873B5E700BFFFFF0F0090
:1021F800F052000800000000F8B5C1F30A53044685
:102208000D460E4617460BBB034621F000463343E6
:102218001BD02F4B002200F025FA2E4B04469F427C
:102228000D4637DB0E46C1F30A53363B40F2FE72C9
:102238003B4493421ADC002B11DD26F0FF4626F4BE
:10224800E00646EA035520462946F8BD40F2FF72EB
:102258009342EBD102460B4600F04EF8F8BD13F15D
:10226800350F1DDA4CF250339F420CDD14A1D1E931
:10227800000122462B4600F031F811A3D3E90023D0
:1022880000F0F0F9F8BD22460FA1D1E900012B4674
:1022980000F024F80CA3D3E9002300F0E3F9F8BD1B
:1022A80026F0FF4626F4E006363346EA0355204674
:1022B80029460022084B00F0D5F9F8BDAFF300809D
:1022C8009C7500883CE4377E59F3F8C21F6EA5015F
:1022D80000005043B03CFFFF0000903C03F0004377
:1022E80021F0004242EA0301704700BF81F000413B
:1022F80002E000BF83F0004330B54FEA41044FEAE3
:10230800430594EA050F08BF90EA020F1FBF54EA7D
:10231800000C55EA020C7FEA645C7FEA655C00F019
:10232800E2804FEA5454D4EB5555B8BF6D420CDDEA
:102338002C4480EA020281EA030382EA000083EA6D
:10234800010180EA020281EA0303362D88BF30BD0D
:1023580011F0004F4FEA01314FF4801C4CEA113163
:1023680002D0404261EB410113F0004F4FEA0333C2
:102378004CEA133302D0524263EB430394EA050F4D
:1023880000F0A780A4F10104D5F1200E0DDB02FABC
:102398000EFC22FA05F2801841F1000103FA0EF250
:1023A800801843FA05F359410EE0A5F120050EF116
:1023B800200E012A03FA0EFC28BF4CF0020C43FA47
:1023C80005F3C01851EBE37101F0004507D54FF054
:1023D800000EDCF1000C7EEB00006EEB0101B1F5A4
:1023E800801F1BD3B1F5001F0CD349085FEA3000EA
:1023F8004FEA3C0C04F101044FEA445212F5800FF5
:1024080080F09A80BCF1004F08BF5FEA500C50F191
:10241800000041EB045141EA050130BD5FEA4C0C74
:10242800404141EB010111F4801FA4F10104E9D1FD
:1024380091F0000F04BF01460020B1FA81F308BFF4
:102448002033A3F10B03B3F120020CDA0C3208DDC0
:1024580002F1140CC2F10C0201FA0CF021FA02F19B
:102468000CE002F11402D8BFC2F1200C01FA02F10B
:1024780020FA0CFCDCBF41EA0C019040E41AA2BF30
:1024880001EB0451294330BD6FEA04041F3C1CDAF8
:102498000C340EDC04F11404C4F1200220FA04F018
:1024A80001FA02F340EA030021FA04F345EA0301C2
:1024B80030BDC4F10C04C4F1200220FA02F001FA84
:1024C80004F340EA0300294630BD21FA04F0294606
:1024D80030BD94F0000F83F4801306BF81F480119F
:1024E8000134013D4EE77FEA645C18BF7FEA655C12
:1024F80029D094EA050F08BF90EA020F05D054EAE4
:10250800000C04BF1946104630BD91EA030F1EBFE8
:102518000021002030BD5FEA545C05D140004941EC
:1025280028BF41F0004130BD14F580043CBF01F5DF
:10253800801130BD01F0004545F0FE4141F47001C5
:102548004FF0000030BD7FEA645C1ABF19461046A0
:102558007FEA655C1CBF0B46024650EA013406BFA1
:1025680052EA033591EA030F41F4002130BD00BF60
:1025780090F0000F04BF0021704730B54FF480641D
:1025880004F132044FF000054FF0000150E700BF9E
:1025980090F0000F04BF0021704730B54FF48064FD
:1025A80004F1320410F0004548BF40424FF00001EA
:1025B8003EE700BF42004FEAE2014FEA31014FEA2D
:1025C80002701FBF12F07F4393F07F4F81F060517C
:1025D800704732F07F4208BF704793F07F4F04BFC7
:1025E80041F40021704730B54FF4607401F00045A4
:1025F80021F000411CE700BF50EA010208BF704704
:1026080030B54FF000050AE050EA010208BF7047F4
:1026180030B511F0004502D5404261EB41014FF45D
:10262800806404F132045FEA915C3FF4D8AE4FF065
:1026380003025FEADC0C18BF03325FEADC0C18BF48
:10264800033202EBDC02C2F1200300FA03FC20FA99
:1026580002F001FA03FE40EA0E0021FA02F11444E6
:10266800BDE600BF70B54FF0FF0C4CF4E06C1CEAFF
:1026780011541DBF1CEA135594EA0C0F95EA0C0F70
:1026880000F0DEF82C4481EA030621EA4C5123EAE3
:102698004C5350EA013518BF52EA033541F4801112
:1026A80043F4801338D0A0FB02CE4FF00005E1FBC5
:1026B80002E506F00042E0FB03E54FF00006E1FB0F
:1026C80003569CF0000F18BF4EF0010EA4F1FF0452
:1026D800B6F5007F64F5407404D25FEA4E0E6D4192
:1026E80046EB060642EAC62141EA55514FEAC520A3
:1026F80040EA5E504FEACE2EB4F1FD0C88BFBCF51F
:10270800E06F1ED8BEF1004F08BF5FEA500E50F1CF
:10271800000041EB045170BD06F0004646EA010195
:1027280040EA020081EA0301B4EB5C04C2BFD4EBC7
:102738000C0541EA045170BD41F480114FF0000EC0
:10274800013C00F3AB8014F1360FDEBF002001F02E
:10275800004170BDC4F10004203C35DA0C341BDCA8
:1027680004F11404C4F1200500FA05F320FA04F07A
:1027780001FA05F240EA020001F0004221F00041AE
:1027880010EBD37021FA04F642EB06015EEA430E21
:1027980008BF20EAD37070BDC4F10C04C4F1200551
:1027A80000FA04F320FA05F001FA04F240EA020004
:1027B80001F0004110EBD37041F100015EEA430ED5
:1027C80008BF20EAD37070BDC4F1200500FA05F2F5
:1027D8004EEA020E20FA04F301FA05F243EA020374
:1027E80021FA04F001F0004121FA04F220EA020083
:1027F80000EBD3705EEA430E08BF20EAD37070BDC9
:1028080094F0000F0FD101F00046400041EB0101A8
:1028180011F4801F08BF013CF7D041EA060195F08A
:10282800000F18BF704703F00046520043EB030344
:1028380013F4801F08BF013DF7D043EA0603704731
:1028480094EA0C0F0CEA135518BF95EA0C0F0CD03C
:1028580050EA410618BF52EA4306D1D181EA030182
:1028680001F000414FF0000070BD50EA410606BF7C
:102878001046194652EA430619D094EA0C0F02D1C1
:1028880050EA013613D195EA0C0F05D152EA033606
:102898001CBF104619460AD181EA030101F0004124
:1028A80041F0FE4141F470014FF0000070BD41F06D
:1028B800FE4141F4780170BD70B54FF0FF0C4CF447
:1028C800E06C1CEA11541DBF1CEA135594EA0C0F66
:1028D80095EA0C0F00F0A7F8A4EB050481EA030EB3
:1028E80052EA03354FEA013100F088804FEA03339A
:1028F8004FF0805545EA131343EA12634FEA022268
:1029080045EA111545EA10654FEA00260EF0004128
:102918009D4208BF964244F1FD0404F5407402D27A
:102928005B084FEA3202B61A65EB03055B084FEA0B
:1029380032024FF480104FF4002CB6EB020E75EB08
:10294800030E22BFB61A754640EA0C005B084FEA30
:102958003202B6EB020E75EB030E22BFB61A7546AD
:1029680040EA5C005B084FEA3202B6EB020E75EBF8
:10297800030E22BFB61A754640EA9C005B084FEA70
:102988003202B6EB020E75EB030E22BFB61A75467D
:1029980040EADC0055EA060E18D04FEA051545EA6C
:1029A80016754FEA06164FEAC30343EA52734FEA15
:1029B800C2025FEA1C1CC0D111F4801F0BD141EA8E
:1029C80000014FF000004FF0004CB6E711F4801FF3
:1029D80004BF01430020B4F1FD0C88BFBCF5E06FD3
:1029E8003FF6AFAEB5EB030C04BFB6EB020C5FEAE3
:1029F800500C50F1000041EB045170BD0EF0004E38
:102A08004EEA113114EB5C04C2BFD4EB0C0541EA69
:102A1800045170BD41F480114FF0000E013C90E666
:102A280045EA060E8DE60CEA135594EA0C0F08BF2A
:102A380095EA0C0F3FF43BAF94EA0C0F0AD150EA29
:102A480001347FF434AF95EA0C0F7FF425AF1046BC
:102A580019462CE795EA0C0F06D152EA03353FF4E4
:102A6800FDAE1046194622E750EA410618BF52EA61
:102A780043067FF4C5AE50EA41047FF40DAF52EA35
:102A880043057FF4EBAE12E74FF0FF3C06E000BFD2
:102A98004FF0010C02E000BF4FF0010C4DF804CDDF
:102AA8004FEA410C7FEA6C5C4FEA430C18BF7FEA9F
:102AB8006C5C1BD001B050EA410C0CBF52EA430CCD
:102AC80091EA030F02BF90EA020F0020704710F14D
:102AD800000F91EA030F58BF994208BF90422CBFDC
:102AE800D8176FEAE37040F0010070474FEA410CD5
:102AF8007FEA6C5C02D150EA013C07D14FEA430CF3
:102B08007FEA6C5CD6D152EA033CD3D05DF8040B63
:102B1800704700BF8446104662468C461946634695
:102B280000E000BF01B5FFF7B7FF002848BF10F16C
:102B3800000F01BD4DF808EDFFF7F4FF0CBF0120B1
:102B480000205DF808FB00BF4DF808EDFFF7EAFF2D
:102B580034BF012000205DF808FB00BF4DF808EDE8
:102B6800FFF7E0FF94BF012000205DF808FB00BFDD
:102B78004DF808EDFFF7CEFF94BF012000205DF867
:102B880008FB00BF4DF808EDFFF7C4FF34BF012074
:102B980000205DF808FB00BF4FEA410C7FEA6C5C3F
:102BA80002D150EA013C0AD14FEA430C7FEA6C5C3F
:102BB80002D152EA033C02D14FF0000070474FF0B7
:102BC800010070474FEA410212F5001215D211D5E3
:102BD8006FF47873B3EB625212D94FEAC12343F012
:102BE800004343EA505311F0004F23FA02F018BF94
:102BF800404270474FF00000704750EA013005D15D
:102C080011F0004008BF6FF0004070474FF000001F
:102C1800704700BF002100F047BE0000014B186854
:102C2800704700BF2400002003460244934200D1AD
:102C3800704703F8011BF9E7034610B51A785C1CC6
:102C48003AB9013B11F8012B03F8012F002AF9D1F9
:102C580010BD2346F2E7034613F8012B002AFBD1E7
:102C6800181A013870472DE9F0410F46904601F0D7
:102C780079FC04460D46B8F1000F11D0C7F30A538A
:102C8800C3F16B03002B0BDD00241B0503F17F55FB
:102C980005F5401522462B46FFF7E4FC04460D4691
:102CA80020462946BDE8F0812DE9F04F1F46002354
:102CB800A1B0834638460E4617921C9301F068F976
:102CC80080460068FFF7C7FF4FF0000904464FF041
:102CD800000A1B961B9B1A780D2A32D8092A36D26D
:102CE800002A3ED000230D931B9D2B78302B40F0FB
:102CF800AC806B78582B01D0782B67D10D9B02974D
:102D080001931CAB0093894A1DAB1BA9584600F0E0
:102D180067FE10F00704064605D0062C2BD10023C9
:102D280001351B950D93179B002B40F0A6850D9B35
:102D3800E3B14A460AF100431046194621B0BDE8FE
:102D4800F08F2B2A15D02D2A04D0202ACAD101337E
:102D58001B93BFE701220D925A1C1B925B78002B34
:102D6800C2D1179B1B96002B40F085854A465346D7
:102D7800E2E70022EFE71C9A3AB135211EA801F0DC
:102D8800E4FC1C99584601F056F9013C042C06D87D
:102D9800DFE804F00A0314170A00DDE91E9A310778
:102DA800C1D54AF0004ABEE71D9ADDE91E9302F23A
:102DB800334223F4801343EA025AF0E7DFF870A1A4
:102DC800EDE76FF0004A4FF0FF39E8E71B9B5A1C0C
:102DD8001B925B78302BF9D0002BA4D0012300255F
:102DE8000A2207931B9B0695089304951B9807785E
:102DF800A7F13003D9B2092929D92246D8F80010F9
:102E080002F02EF8002831D000203B460246049CF0
:102E18000590652B01D0452B14D124B910B9079B17
:102E2800002B9ED000241B9E731C1B9373782B2BA6
:102E380078D02D2B70D04FF0000CA3F13007092F5C
:102E48007CD91B964FF0000E9AE00023C7E704993F
:102E580001300829D7BF069902FB053502FB01336B
:102E68000693049B1B9001330493BFE71B9B1A191D
:102E78001B92049A1B5D002A37D00246049CA3F1DA
:102E88003001092913D901210591C2E71B9B0130A3
:102E98005A1C1B925B78302BF8D0A3F13102082A18
:102EA80000F2F0841B9A0892024600200446B3F10F
:102EB800300E00F1010112D00A440A27214600EB26
:102EC800040C8C4513D12118082904F10104044489
:102ED80019DC0A21069B01FB03E3069300211B9BD7
:102EE800581C1B905B780846C9E70498D3E7082963
:102EF80001F1010103DC069B7B430693E1E71029FE
:102F0800D8BF7D43DDE7102CDCBF0A2101FB05E5B6
:102F1800E4E70123059381E74FF0010CB31C1B93F1
:102F2800B3788AE74FF0000CF8E700BF0C530008AD
:102F38000000F07F1B9B5F1C1B975B78302BF9D040
:102F4800A3F13107082F3FF67DAFA3F1300E1B9B8D
:102F580009931B9B5F1C1B975B78A3F13008B8F1A2
:102F6800090F37D909997F1A082F44F61F6737DCEC
:102F7800BE45A8BFBE46BCF1000F01D0CEF1000E81
:102F8800002C51D100287FF4CEAE079A002A7FF496
:102F9800CAAE059A002A7FF4E4AE4E2B27D021DC76
:102FA800492B7FF4DEAEA4491BA800F04DFF002892
:102FB8003FF4D7AE1B9BA149013B1BA81B9300F014
:102FC80043FF10B91B9B01331B93DFF884A24FF01A
:102FD8000009A8E60A2101FB0E3EAEF1300EB8E763
:102FE800BE46C8E7692BDED06E2B7FF4BAAE944993
:102FF8001BA800F029FF00283FF4B3AE1B9B1B78E9
:10300800282B0ED11EAA8F491BA800F031FF0528D6
:1030180007D11F9BDDF8789043F0FF4A4AF4E00A95
:1030280081E6DFF834A2D2E7AEEB02030793049BF4
:103038000698002B08BF2346102C0493A046A8BF6F
:103048004FF01008FFF794FA092C81468A4613DCE2
:10305800079B002B3FF467AE079B7EDD162B65DCD4
:10306800794A02EBC30E4A46DEE900015346FFF7F0
:10307800F9FA81468A4656E6734B03EBC80353E9CF
:103088001223FFF7EFFA064628460F46FFF770FAB5
:1030980002460B4630463946FFF72EF90F2C81467B
:1030A8008A46D5DD079BA4EB08089844B8F1000FC1
:1030B80040F39A8018F00F030AD063494A4601EB9F
:1030C800C301D1E900015346FFF7CCFA81468A468D
:1030D80038F00F0877D0B8F59A7F4BDD4FF000082D
:1030E800CDF81080CDF82080CDF8188022234FF03D
:1030F8000009DFF85CA1CBF80030089B002B3FF4F7
:1031080012AE1C99584600F096FF0699584600F0F2
:1031180092FF0499584600F08EFF0899584600F02F
:103128008AFF4146584600F086FFFCE5079AC4F13D
:1031380025039342B6DB444DC4F10F0405EBC401EB
:103148004A46D1E900015346FFF78CFA079B1C1B3E
:1031580005EBC405D5E9002389E713F1160FA1DBB8
:10316800394A4846A2EBC302D2E900235146FFF789
:10317800A3FB7EE70023484651461D46334E4FEADF
:103188002818B8F1010F21DC0BB181468A462F4B74
:10319800AAF1547A03EBC5054A46D5E9000153461E
:1031A800FFF760FA2A4B0A460B402A4981468B42B0
:1031B80094D8A1F580118B4286BF4FF0FF39DFF814
:1031C8009CA002F1547A002305937BE018F0010FCC
:1031D80006D006EBC503D3E90023FFF743FA012322
:1031E80001354FEA6808CCE7EDD0C8F1000818F0BF
:1031F8000F020AD0144B484603EBC2035146D3E9E9
:103208000023FFF759FB81468A465FEA2818DAD07F
:10321800B8F11F0F24DD4FF00008CDF81080CDF86D
:103228002080CDF8188022234FF000094FF0000AC3
:10323800CBF8003061E700BF0053000803530008D3
:1032480009530008205300089853000870530008D9
:103258000000F07F0000A07C0000F8FFFFFFEF7F78
:1032680018F0100318BF6A234846059351460023F7
:10327800A14DB8F1000F00F313810BB181468A46C6
:10328800059BBBB1CAF30A53C3F16B03002B51462C
:1032980010DD1F2B40F31081342BD8BF4FF0FF32C5
:1032A8004FF00009CFBF4FF05C7A203B02FA03F3DE
:1032B80003EA010A0022002348465146FFF73AFC78
:1032C8000028A8D1069B049A0093089923465846DB
:1032D80000F003FF089000283FF400AF079A079B0F
:1032E800002AC3F10003A8BF00234FF000080E9383
:1032F80022EAE2731693CDF81080089B5846596865
:1033080000F065FE069000283FF4F0AE089B0C30F4
:103318001A6903F10C010232920000F04DFE1EAB57
:1033280001931DAB00934A4653465846CDE90A9A85
:1033380001F08EF91C9000283FF4D8AE01215846C0
:1033480000F057FF0490034600283FF4CFAE1D9DC0
:103358001E9A002DABBF0E9B169BEE185C1B059B9F
:10336800A8BF169CA5EB03051544644B05F1FF3572
:10337800B8BF0E9E9D42C2F1360280F2AF805B1B41
:103388001F2BA2EB03024FF0010700F39C800025DE
:1033980007FA03F30F93B718059BBE4214441C4465
:1033A8003346A8BF3B46A342A8BF2346002BC2BF53
:1033B800FF1AE41AF61A0E9BBBB11A46049958462E
:1033C80000F0B6FF049000283FF490AE01461C9A26
:1033D800584600F017FF099000283FF487AE1C9963
:1033E800584600F028FE099B1C93002F7ADC079BA7
:1033F800002B08DD169A0699584600F099FF0690AA
:1034080000283FF473AE002C08DD22460699584682
:1034180000F0DCFF069000283FF468AE002E08DDBF
:1034280032460499584600F0D1FF049000283FF432
:103438005DAE069A1C99584601F036F88046002879
:103448003FF454AE0024C3680499C4600C9301F09F
:1034580011F8A04254DA0C9BF3B9B9F1000F1BD153
:10346800CAF31303C3B92AF000431B0D1B05B3F1BC
:10347800D66F11D9D8F814301BB9D8F81030012BF1
:103488000ADD41460122584600F0A0FF0499804613
:1034980000F0F0FF002868DC059B002B72D130E6B5
:1034A80018F0010F04D0D5E90023FFF7DBF801235A
:1034B8004FEA68080835DCE64FF0FF3202FA03F3FA
:1034C80003EA0909F6E6C5F17F4505F57F0505F527
:1034D8007B45E23507FA05F50F975CE701230025E0
:1034E8000F9358E73A461C99584600F06FFF1C9016
:1034F80000287FF47CAFF9E53853000802FCFFFF91
:10350800CDF824A040F089800C9ACAF3130342B383
:10351800AF4A934256D1059B4846EBB15346AD4A54
:103528004FF0FF311A40B2F1D46F18D8120DC2F122
:103538006B0301FA03F3984244D1A74B099A9A42C4
:1035480002D101303FF4D2ADA24B099A4FF00009E5
:103558001A4002F5801A9FE74FF0FF33EBE70B465E
:10356800E9E77BBBB9F1000F2CD105995346994A7D
:10357800F1B102EA0A01B1F1D66F19DCB1F15C7F51
:103588007FF751AE0023954A4846CDE9143251469B
:10359800DDE91423FFF766F881468A4600297FF49F
:1035A800B0AD00287FF4ADAD2223CBF80030A8E5FC
:1035B8001340A3F580136FEA135A4FF0FF396FEAEF
:1035C8000A5A69E79DB1099B1D423FF465AF0C9B00
:1035D800059A4846514673B1FFF745FB02460B462C
:1035E800DDE90A01FEF788FE81468A4654E70F9B0B
:1035F80013EA090FE9E7FFF736FB02460B46DDE958
:103608000A01FEF777FE0022002381468A46FFF76B
:1036180091FA00287FF407AE3EE70499404601F08E
:1036280066F800224FF0804306460F46FFF796FAE9
:10363800002875D00C9B002B47D00026684F684D9A
:10364800099B23F000431B0D1B050F930F9A654B35
:103658009A4240F0CF80DDE90A23CDE91423099B83
:103668004846A3F1547A514600F07CFF02460B46C7
:1036780030463946FEF7F6FF4A465346FEF73CFE0B
:103688000B465449584A1940914281465ED90B9BD2
:1036980002F15472934203D10A9B01333FF426ADE1
:1036A8004FF0FF39DFF830A11C99584600F0C3FCF1
:1036B8000699584600F0BFFC0499584600F0BBFC38
:1036C8004146584600F0B7FC17E6B9F1000F19D18A
:1036D800099BC3F31303E3B90022414B3046394633
:1036E800FFF732FAC8B90022404B30463946FEF798
:1036F800B9FF04460D4605F1004318941993DDE916
:1037080018679DE7B9F1010F03D1099B002B3FF41E
:103718008AAD0026364F002491E70C9C334DEAE72A
:10372800324B002230463946FEF79CFF0C9B04467C
:103738000D4633B901F1004310901193DDE910678C
:103748007EE702460B46CDE91023F7E703F1547AEA
:10375800059B002BA8D12AF000431B0D0F9A1B05CF
:103768009A425646A0D129462046FFF72BFAFEF783
:103778000FFF0B46024629462046FEF7BBFD0C9B71
:1037880004460D4633B9B9F1000F03D1CAF3130645
:10379800002E6AD00AA3D3E9002320462946FFF762
:1037A800D3F900287FF4ADAC07A3D3E90023204662
:1037B8002946FFF7E7F900283FF476AFA1E400BFF8
:1037C8009535A094FFFFDF3F35E5AF350000E03FBA
:1037D800FFFF0F000000F07FFFFFEF7F0000503970
:1037E8000000F03F0000E07FFFFF9F7C0000E03F0B
:1037F8000000F0BF059B13B30F9BB3F1D46F1ED825
:1038080025A3D3E9002320462946FFF7A7F990B15D
:103818002946204601F0F0FB002808BF0120FEF7EA
:10382800A7FE0C9B04460D46D3B901F10043129044
:103838001393DDE912670F9A07F1D6639F1ADDE942
:103848000A0100F08FFE02460B4630463946FEF765
:1038580009FFDDE90A23FEF74FFD81468A4677E72F
:1038680002460B46CDE91223E3E70DA3D3E9002373
:10387800FFF76AF99FE700230D931B9B179A1360C4
:10388800FFF755BA652B4FF000023FF442AB012118
:1038980014460591FFF7BFBA0000C0FFFFFFDF41E4
:1038A8009535A094FFFFCF3F064B10B41C68064A1D
:1038B800236A002B08BF13460A460146204610BC5F
:1038C800FFF7F2B9240000208800002030B5141E4C
:1038D80005469BB0184605DA8B234FF0FF302B6066
:1038E8001BB030BD4FF40273ADF80C300CBF23464B
:1038F80004F1FF33029305934FF6FF73009104918F
:10390800ADF80E3002461E9B6946284601F01AF8AB
:10391800431CBCBF8B232B60002CE1D00022009BF2
:103928001A70DDE707B5009313460A4601460348B7
:103938000068FFF7CBFF03B05DF804FB240000200C
:10394800F0B506694B119E4200F1140431DD11F007
:103958001F0104EB860604EB830208D12146B2421C
:103968000B4611D252F8043B41F8043BF7E754F8F0
:1039780023502346C1F1200CCD400432B2421746F1
:103988000DD31D6005B10433A342A3EB040208BFA5
:1039980000234FEAA202026108BF4361F0BD3F68FD
:1039A80007FA0CF73D4343F8045B52F8045BCD403B
:1039B800E4E72346E8E7A0F13003092B02D82038D2
:1039C800C0B27047A0F16103052B01D84738F7E76B
:1039D800A0F14103052B01D82738F1E700207047F3
:1039E8002DE9F04F8BB0029016988A4690460693C0
:1039F80000F0CEFA03684FF0000B18460393FFF768
:103A08002AF9039B0190034413F8013C0793DAF861
:103A1800003002331F4613F8010B30286CD0FFF733
:103A2800CAFF044600286AD1019A0399384601F072
:103A380017FA002866D1019BF85CFE18FFF7BBFF58
:103A4800002862D0334618781F46302803F1010356
:103A5800F9D0FFF7B0FFB0FA80F534464FF0010B0C
:103A68006D093A46164630780132FFF7A4FF002860
:103A7800F8D1019A0399304601F0F2F950B954B9D6
:103A8800019BF4182246164630780132FFF793FF5F
:103A98000028F8D10CB1A41BA4003378502B01D016
:103AA800702B40D173782B2B31D02D2B33D04FF086
:103AB8000009711C0878FFF77EFF431EDBB2182B44
:103AC80031D8A0F1100211F8010FFFF774FF431E5F
:103AD800DBB2182B22D9B9F1000F00D0524214449E
:103AE800CAF800100DB3BBF1000F0CBF0627002762
:103AF80038460BB0BDE8F08F0BF1010B8AE70025C3
:103B08002C46AEE73E460125C7E70446FBE74FF0E3
:103B18000009B11CCEE74FF00109FAE70A2303FBBD
:103B28000202103ACFE73146DAE72946F31B013B98
:103B3800072B49DC029800F04AFA4FF0000B0546C3
:103B4800DA46019B00F11409C3F10103CDF8109086
:103B58000893B7423BD3049840F804ABA0EB0900A4
:103B6800801028614701504600F0F5FAD8F8006047
:103B78003F1AB74264DDBF1B3946284600F0FFFDF7
:103B8800824678B14FF0010A7B1E591103F01F02DB
:103B980059F821100AFA02F20A4203D0534546DCCA
:103BA8004FF0020A39462846FFF7CAFE3C44D8F8C7
:103BB8000830A34252DA2946029800F03CFA002362
:103BC800149AA327136093E701315B10B0E7731EC3
:103BD8000593079A16F8013C934218D0BBF1200FC1
:103BE80007D1049BC3F800A04FF0000AD346043362
:103BF800049316F8010CFFF7DEFE00F00F0000FA40
:103C08000BF04AEA000A0BF1040B059B0DE0059B3B
:103C1800089A1344BB42E1D31846019A03990993C1
:103C280001F01EF9099B0028D8D11E4691E7B91E5C
:103C3800284600F0A4FD0028B2D04FF0030AB1E7EF
:103C480009DAF71B29463A46029800F0BFFB0546F9
:103C5800E41B00F114094FF0000AA8E7D8F80400A3
:103C6800A0426BDD041BA6422EDCD8F80C30022BD8
:103C780022D0032B24D0012B15D1A64213D1012E1B
:103C88000BDCD8F80430069A6227136001232B61F5
:103C9800C9F80030149B1D602AE7711E284600F001
:103CA8006EFD0028EDD12946029800F0C4F90023E2
:103CB800149A502713601BE7159B002BE1D0F2E7FD
:103CC800159B002BDDD1EEE7671EBAF1000F32D14C
:103CD80027B13946284600F052FD824601237A1161
:103CE80007F01F0703FA07F759F8223021461F4249
:103CF8004FF00207284618BF4AF0020A361BFFF7A2
:103D08001FFED8F80440BAF1000F48D0D8F80C309C
:103D1800022B15D0032B17D0012B09D11AF0020F53
:103D280006D0D9F800304AEA030A1AF0010F0ED17A
:103D380047F0100733E04FF0010ACFE70127E2E729
:103D4800159BC3F101031593159B002BF0D04FF081
:103D5800000CD5F8109005F114034FEA890A03EB1B
:103D68000A01184653F8042BB2F1FF3F1CD0013268
:103D78000260022F05F1140338D1D8F80020013A67
:103D8800B2420AD10122711153F8213006F01F0600
:103D980002FA06F61E4218BF174647F02007149B82
:103DA8001D60069B1C60A3E6994243F804CCD8D852
:103DB800AB68994512DB69680298013100F007F990
:103DC80083462A6905F10C01023292000C3000F09A
:103DD800F3F82946029800F02EF95D462B695A1C23
:103DE8002A61012205EB83035A61C2E72A694A4521
:103DF8000BDD01212846FFF7A3FDD8F80830013470
:103E0800A342FFF6D8AE0127C7E716F01F06FAD07F
:103E18009A445AF8040C00F09EF9C6F12006B04204
:103E2800E7DBF0E7C2F10802920070B5C2F12006A4
:103E38004368046803FA06F52C43D340046040F84D
:103E4800043F8842F4D370BD30B50368013311F8DC
:103E5800014B14B90360012030BD13F8012BA2F106
:103E68004105192D98BF2032A242F0D00020F3E777
:103E78002DE9F04F00250B6882465F1102EB87079A
:103E880013F01F0318BF04373E1F9046B14634464F
:103E9800AB4687B00168019347F8045C02954A78FD
:103EA8004B1C039342B3104605910492FFF783FD20
:103EB800002843D1049A0599202A18D8029B9B45CB
:103EC80013DD4C4506D2072D04DC2A464946204618
:103ED800FFF7A8FF444544D90023A4F1040944F896
:103EE800043C1D464C46CDF808B00399D7E7292A6B
:103EF8004AD10231CAF80010BBF1000F44D04C453A
:103F080006D2072D04DC2A4649462046FFF78AFFD9
:103F1800444528D9434654F8042BA64243F8042BB9
:103F2800F9D2002243F8042B9E42FBD233681BB916
:103F3800464527D101233360052026E00135082DA9
:103F48000BF1010B06DD4445CFD90023012544F8C8
:103F5800043C043C226800F00F0040EA0210206094
:103F6800C3E70825C1E7019B002BDFD04FF0FF32E4
:103F7800C3F1200322FA03F357F8042C1A4047F838
:103F8800042CD3E7043ED1E7042007B0BDE8F08F46
:103F9800F030704782B001B901A942B14BB1137832
:103FA8000B601278101C18BF012002B07047104631
:103FB800FBE76FF00100F8E710B5431E0A44914291
:103FC80000D110BD11F8014B03F8014FF7E770B5A8
:103FD800456A04460E463DB9102000F061FF606254
:103FE800C0E901550560C560656AEB6883B1636A1D
:103FF800DB6853F82600B8B9012101FA06F56A1DF5
:104008009200204600F0DCFB60B1C0E901650EE0DB
:1040180021220421204600F0D3FB636AE860DB68B4
:10402800002BE4D1002070BD026843F8262000234D
:10403800C0E90333F7E770B5446A06460D463CB954
:10404800102000F02DFF7062C0E901440460C460D4
:104058003DB1736A6A68DB6853F82210296043F837
:10406800225070BD2DE9F0411F4606460C4600233C
:104078000D6901F1140CDCF80000013381B202FB78
:104088000171000C0F0C02FB007089B201EB0041BA
:104098009D424FEA10474CF8041BECDCD7B1A368EB
:1040A800AB4212DC616830460131FFF790FF804671
:1040B800226904F10C01023292000C30FFF77CFFF8
:1040C80021463046FFF7B7FF444604EB8503013528
:1040D8005F6125612046BDE8F0812DE9F84315466A
:1040E80009221F4608330C4693FBF2F306460122C9
:1040F80000219A4220DB3046FFF769FF089B092D13
:1041080043614FF00103036119DD04F10908C14659
:104118002C4419F8013B0146303B0A223046FFF790
:10412800A1FFA145F5D108EB0504083C2D1B631937
:10413800BB4207DBBDE8F88352000131D9E70A34F6
:104148000925F3E714F8013B0146303B0A223046C3
:10415800FFF788FFEBE7020C12040346B2B9030429
:10416800102013F07F4F04BF1B02083013F0704F6C
:1041780004BF1B01043013F0404F04BF9B00023002
:10418800002B06DB5B0003D5013070470020E8E711
:10419800202070470368014613F007020BD0DA07A6
:1041A80023D4980749BF5B089B0801200B605CBFBC
:1041B8000B600220704798B2A8B910201B0C13F0AE
:1041C800FF0F04BF1B0A08301A0704BF1B0904307D
:1041D8009A0704BF9B080230DA0702D45B0806D0AE
:1041E80001300B6070471046E9E700207047202037
:1041F800704710B50C460121FFF7E9FE0122446122
:10420800026110BD2DE9F74F14460A6923698846F3
:104218009A42BEBF0B46A0461C46D8F81070D4F888
:104228001090D8F80830D8F8041007EB0906B34204
:10423800B8BF0131FFF7CBFE00F114052B46002271
:1042480005EB860E734516D304F1140208F1140128
:1042580002EB890301EB87070093009B01929342CD
:104268000CD8002E03DD5EF8043D002B5DD00661FE
:1042780003B0BDE8F08F43F8042BE3E7B2F800B0D1
:10428800BBF1000F23D08946AC464FF0000859F81F
:10429800044BDCF800A0A3B21FFA8AFA0BFB03A3B5
:1042A8004FEA144ADCF8004043444FEA14480BFB39
:1042B8000A84E24604EB13449BB243EA04434F45A5
:1042C8004FEA14484AF8043B2BD8CCF80480019BE9
:1042D8000432B3F802A0BAF1000F20D08946A846EC
:1042E8004FF0000B2B68B9F800C0B8F802409BB239
:1042F8000AFB0C44C4465C4443EA04434CF8043BC0
:1043080059F8043BB8F804B01B0C0AFB03B34F453B
:1043180003EB14434FEA134B05D8C8F804300435AF
:104328009BE7D446B3E7E046DDE7013E99E70000A6
:104338002DE9F843154612F0030206460F4607D04A
:10434800214C013A002354F82220FFF78BFE074640
:10435800AD1035D0746A3CB9102000F0A1FD706230
:10436800C0E901440460C460D6F82480D8F8084045
:104378004CB940F271213046FFF73BFF0023044659
:10438800C8F8080003604FF00008EB070AD5394663
:1043980022463046FFF736FF814639463046FFF75A
:1043A8004AFE4F466D100BD0206838B92246214688
:1043B8003046FFF727FF2060C0F800800446E4E796
:1043C8003846BDE8F88300BF605400082DE9F0477F
:1043D8000C460746164623694FEA621A0AEB030998
:1043E8004968A36809F10105AB4232DB3846FFF79B
:1043F800EEFD002380461A4600F1140153452BDBDD
:1044080020692AEAEA7A04F1140316F01F0201EB84
:104418008A0103EB800C25D00020C2F1200E8A46C9
:104428001E68964030434AF8040B53F8040B9C4529
:1044380020FA0EF014D8486008B109F10205013DD0
:104448003846C8F810502146FFF7F5FD4046BDE84C
:10445800F08701315B00C7E741F823200133CDE73E
:104468005146DCE7043953F8042B9C4541F8042FE6
:10447800F9D8E4E703690A6930B59B1A0CD19200B0
:10448800143014318418114454F8045D51F8042D83
:10449800954203D005D30123184630BDA042F3D37B
:1044A800FAE74FF0FF33F7E72DE9F0470D460746E7
:1044B800114628461446FFF7DDFF061E08D131468F
:1044C8003846FFF784FD0123C0E90436BDE8F087CC
:1044D800A4BF23462C4638466168A6BF1D46002661
:1044E8000126FFF774FD4FF0000EC6602B692669A0
:1044F80004F1140205F1140902EB860709EB83089D
:1045080000F1140152F804AB59F8045B1FFA8AF35E
:104518007344ACB21B1B2C0CC4EB1A4404EB2344AD
:104528009BB24FEA244EC84543EA0444944641F8F6
:10453800044BE7D8BC4504D351F8043D83B1066168
:10454800C4E75CF8044BA2B27244131403EB14439F
:1045580092B242EA03424FEA234E41F8042BE9E7BC
:10456800013EE9E7104B0B40A3F15073002B02DD2D
:104578000020194670475B421B15132B4FF00000B3
:104588004FF0000104DC4FF4002242FA03F17047B7
:104598000122143B1E2BCEBF1346C3F11F0302FAA0
:1045A80003F31846704700BF0000F07F2DE9F84379
:1045B800076900F1140909EB870757F8046CA7F19C
:1045C80004083046FFF7C7FDC0F120030A280B6036
:1045D8001E4917DCC14528BF0022C0F10B0C26FA82
:1045E8000CF338BF57F8082C43EA010500F115030E
:1045F80006FA03F322FA0CF243EA0204204629469B
:10460800BDE8F883C1453ABFA7F1080857F8082C58
:104618000022B0F10B0315D09E40C3F1200746F0ED
:104628007F5622FA07F1C84546F4401646EA0105C6
:1046380094BF002158F8041C02FA03F0F94040EA3C
:104648000104DBE746EA01051446D7E70000F03F1E
:104658002DE9F3411C46DDE9086501219046FFF785
:10466800B6FCC4F31302C4F30A54074634BB0192E0
:10467800B8F1000227D002A840F8082DFFF78AFDFC
:104688000099F0B1019AC0F1200302FA03F30B4339
:10469800C2407B610192019B002B14BF02210121C2
:1046A800BB613961C4B1A4F2334404443460C0F13D
:1046B80035002860384602B0BDE8F08142F4801227
:1046C800D5E77961E7E701A8FFF764FD0121019BC0
:1046D80039617B612030E5E7A0F2324007EB8103C6
:1046E80030601869FFF737FDC0EB4110E1E72DE9AD
:1046F800F74F884669468146FFF758FF8B460646BE
:104708000F46404601A9FFF751FFD9F81030D8F8F5
:1047180010200D46A3EB020CDDE900329B1A03EBD7
:104728004C13002BD5BF0A463A46C3EB033302EBC2
:10473800035BD8BF02EB03552B4602465946304669
:10474800FEF7BAF803B0BDE8F08F013910B549118A
:104758001469013102F1140300EB810103EB8404B5
:10476800A342024603D300238A4205D310BD53F85F
:10477800042B40F8042BF3E742F8043BF4E700F17C
:10478800140200694B11984210B511DB0ADD11F0D3
:104798001F0107D052F8234024FA01F000FA01F172
:1047A8008C420BD102EB8303934203D8002010BD47
:1047B8000346F7E753F8041D0029F5D00120F6E772
:1047C80038B502FB01F4214600F008F8054618B197
:1047D80022460021FEF728FA284638BD70B5CD1CC0
:1047E80025F0030508350C2D38BF0C25002D06468D
:1047F80001DBA94203D90C233360002070BD00F00F
:104808007EFB214A1468214691B9204C23681BB9C4
:10481800304600F015FB20602946304600F010FBBA
:10482800431C24D10C233046336000F069FBE4E7D5
:104838000B685B1B18D40B2B0FD90B60CC18CD5011
:10484800304600F05DFB04F10B00231D20F007004B
:10485800C31AD3D05A42E250D0E74B688C4216BFF5
:10486800636013600C46EBE70C464968CCE7C41C50
:1048780024F00304A04205D0211A304600F0E0FAE3
:104888000130CFD02560DBE78402002088020020B9
:104898002DE9F0478E6882469E420C46904699461E
:1048A80037D88A8912F4906F31D0022325680969B4
:1048B8006F1A656905EB450595FBF3F509F10103E9
:1048C8003B449D4238BF1D46530530D52946FFF766
:1048D80085FF064650B90C234FF0FF30CAF8003068
:1048E800A38943F04003A381BDE8F0873A462169D4
:1048F800FFF762FBA38923F4906343F08003A3814D
:1049080026613E4426604E466561ED1BA5604E4516
:1049180000D94E4632464146206800F0D7FAA368CF
:1049280000209B1BA36023681E442660DCE72A4600
:1049380000F034FB06460028E2D12169504600F019
:10494800E1FAC8E72DE9F04F9DB003938B898046C3
:104958001D060C4616460FD50B696BB94021FFF7AB
:104968003DFF2060206128B90C23C8F800304FF0C3
:10497800FF30C7E0402363610023099320238DF8AB
:10498800293030234FF0010B8DF82A3037463D4649
:1049980015F8013B0BB1252B3ED1B7EB060A0BD01E
:1049A8005346324621464046FFF772FF013000F079
:1049B800A480099B534409933B78002B00F09D8009
:1049C80000234FF0FF32CDE90523049307938DF8B8
:1049D80053301A932F46052217F8011B4F4800F051
:1049E80067FA049BD0B9D90644BF20228DF853201A
:1049F8001A0744BF2B228DF853202A782A2A15D06B
:104A08002F4600200A25079A394611F8013B303B0A
:104A1800092B4DD9B8B10FE02F46B8E73F4A3D46BC
:104A2800801A0BFA00F018430490D3E7039A111D7B
:104A380012680391002A01DB079204E0524243F016
:104A48000203079204933B782E2B0CD17B782A2BF8
:104A580033D1039B02371A1D1B680392002BB8BF82
:104A68004FF0FF3305932E4D03223978284600F086
:104A78001FFA38B14023401B03FA00F0049B0137AA
:104A8800034304933978062226487E1C8DF82810A3
:104A980000F00EFA002838D0234B13BB039B0733D2
:104AA80023F0070308330393099B4B4409936DE7ED
:104AB80005FB023201200F46A6E700230A25194606
:104AC80001370593384610F8012B303A092A03D9E3
:104AD800002BC8D00591C6E705FB01210123074635
:104AE800F0E703AB00932246104B04A94046AFF30E
:104AF8000080B0F1FF3F8146D6D1A3895B063FF520
:104B080036AF09981DB0BDE8F08F03AB009322467D
:104B1800064B04A9404600F081F8EAE76C54000807
:104B280072540008765400080000000099480008F4
:104B38002DE9F04791461F468A680B69064693425D
:104B4800B8BF1346C9F8003091F843200C46DDF889
:104B5800208012B10133C9F800302368990642BF9A
:104B6800D9F800300233C9F80030256815F0060579
:104B780007D104F1190AE368D9F800209B1AAB425F
:104B880029DC94F843302268003318BF01239206C9
:104B98002ED404F1430239463046C047013021D0B3
:104BA8002368E56803F00603042B18BF0025D9F82D
:104BB80000204FF0000908BFAD1AA368226908BF9A
:104BC80025EAE5759342C4BF9B1AED181A344D4582
:104BD8001AD1002008E00123524639463046C04722
:104BE800013003D14FF0FF30BDE8F0870135C2E74F
:104BF8003020E11881F843005A1C94F845102244EB
:104C0800023382F84310C4E701232246394630466E
:104C1800C0470130E6D009F10109D8E72DE9F04392
:104C280001F1430C0C46097E85B06E2917460646ED
:104C380098460C9A00F0B38022D8632936D00AD857
:104C4800002900F0B980582900F0838004F142055A
:104C580084F8421032E0642901D06929F6D120682D
:104C68001368050603F104012AD51B681160002B9F
:104C780003DA2D225B4284F843206F480A2239E088
:104C8800732900F09D8008D86F2920D07029DDD1C4
:104C9800236843F02003236003E0752917D078299F
:104CA800D4D17823654884F8453055E0136804F179
:104CB8004205191D1B68116084F8423001238CE0FD
:104CC8001B6810F0400F116018BF1BB2CFE71368C4
:104CD8002568181D1060280601D51B6802E06806C3
:104CE800FBD51B886F2914BF0A22082252480021CD
:104CF80084F843106568002DA560C0F2958021688E
:104D080021F004012160002B3DD1002D40F08E8060
:104D18006546082A0BD12368DB0708D52369626832
:104D28009A42DEBF302305F8013C05F1FF35ACEBB4
:104D380005032361CDF800803B4603AA214630468F
:104D4800FFF7F6FE01304DD14FF0FF3005B0BDE85A
:104D5800F083394884F84510136821681D1D1B68C5
:104D680015600A060BD5CA0744BF41F0200121602F
:104D78001BB9226822F0200222601022B7E74D06F4
:104D880048BF9BB2EFE76546B3FBF2F102FB113374
:104D9800C35C05F8013D0B460029F5D1B9E7136856
:104DA8002568181D6169106028061B6801D51960FF
:104DB80002E06A06FBD51980002365462361B9E73E
:104DC8001368191D11601D6862680021284600F0EB
:104DD8006FF808B1401B606063682361002384F8A2
:104DE8004330A7E723692A4639463046C047013091
:104DF800AAD023689B0713D4E068039B9842B8BFE6
:104E08001846A3E701234A4639463046C0470130D1
:104E18009AD00135E368039A9B1AAB42F2DCEBE7C0
:104E2800002504F11909F5E7002BACD1037804F14A
:104E3800420584F842306CE77D5400088E5400081F
:104E480038B50023054C054608462360FBF792FA5F
:104E5800431C02D1236803B12B6038BD8C020020AB
:104E680010B56AB10139841810F8013B11F8012F07
:104E7800934203D1A04201D0002BF5D1981A10BD5E
:104E88001046FCE749B1FF2A8BBF8A230A700360EA
:104E9800012088BF4FF0FF30704708467047000078
:104EA800024B01461868FFF799BC00BF2400002098
:104EB80010B5C9B202449042034601D1002303E071
:104EC8001C7801308C42F6D1184610BD884210B5C6
:104ED80001EB020307D8421E99420AD011F8014B90
:104EE80002F8014FF8E78342F5D98118D21AD34264
:104EF80000D110BD13F8014D01F8014DF7E77047D7
:104F08007047000038B50546002943D051F8043CE5
:104F18000C1F002BB8BFE418FFF7F1FF1E4A1368F7
:104F2800104633B9636014602846BDE83840FFF77F
:104F3800E7BFA3420BD921686218934201BF1A68E0
:104F48005B685218226063600460EDE713465A6894
:104F58000AB1A242FAD919685818A0420BD12068A0
:104F68000144581882421960DED110685268014421
:104F780019605A60D8E702D90C232B60D4E720685F
:104F880021188A4201BF11685268091821606260BD
:104F98005C60C9E738BD00BF84020020F8B5074649
:104FA80014460E4621B9BDE8F8401146FFF716BC75
:104FB80022B9FFF7A7FF25462846F8BD00F014F8E8
:104FC800A0420FD221463846FFF708FC05460028C4
:104FD800F2D031462246FEF7EFFF31463846FFF75A
:104FE80091FFE9E73546E7E751F8043C181F002B25
:104FF800BCBF0B58C01870474A0011D212F50012F6
:1050080011D20DD56FF47873B3EB62520ED44FEA18
:10501800C12343F0004343EA505323FA02F0704798
:105028004FF00000704750EA013002D14FF0FF30D6
:1050380070474FF000007047537461636B206672CD
:10504800616D653A0A000000205230203D2020257D
:105058003038580A00000000205231203D20202519
:105068003038580A00000000205232203D20202508
:105078003038580A00000000205233203D202025F7
:105088003038580A0000000020523132203D2025D7
:105098003038580A00000000204C52203D202025BE
:1050A8003038580A00000000205043203D202025B9
:1050B8003038580A0000000020505352203D202567
:1050C8003038580A000000004653522F4641523AE1
:1050D8000A0000002043465352203D202025303846
:1050E800580A00002048465352203D2020253038D9
:1050F800580A00002044465352203D2020253038CD
:10510800580A00002041465352203D2020253038BF
:10511800580A0000204D4D464152203D2025303888
:10512800580A00002042464152203D2020253038B0
:10513800580A00004D6973630A000000204C522F82
:105148004558435F52455455524E3D2025303858F6
:105158000A0000005B486172644661756C745D0A00
:10516800000000005B4275734661756C745D0A004F
:105178005B55736167654661756C745D0A00000074
:105188004461776172616E20000000000000000039
:105198000000000000000000000000000000000007
:1051A80000000000000000000000000000000000F7
:1051B80000000000000000000000000000000000E7
:1051C80000000000000000000000000000000000D7
:1051D80000000000000000000000000000000000C7
:1051E8000000000041542B43495053544152543D50
:1051F80022544350222C2200222C38300D0000006B
:1052080041542B43495053454E443D004745542093
:1052180068747470733A2F2F000000002D3200005C
:105228000D0A0000415445300D0000004745542048
:1052380068747470733A2F2F74726166666963615B
:105248002E6865726F6B756170702E636F6D2F6E4F
:10525800617669676174696F6E2F67736D0000000E
:1052680020477265656E20002059656C6C6F772049
:105278000000000020526564200000003230000069
:1052880074726166666963612E6865726F6B7561B9
:1052980070702E636F6D2F6E617669676174696FC8
:1052A8006E2F000000000000000000000000000059
:1052B8000000000000000000000000002D000000B9
:1052C80074726166666963612E6865726F6B756179
:1052D80070702E636F6D00003731000035310000AB
:1052E800706F7700000000000000000000003043ED
:1052F80000000000000030C36E6600696E697479B2
:1053080000616E0035000000CEFBFFFFCB030000FC
:10531800010000000000000034000000CEFBFFFF89
:10532800CB030000010000000000000000000000A6
:10533800BC89D897B2D29C3C33A7A8D523F6493963
:105348003DA7F444FD0FA5329D978CCF08BA5B2585
:10535800436FAC64280668114300504F5349580006
:105368002E000000000000000080E03779C34143B0
:10537800176E05B5B5B89346F5F93FE9034F384DB3
:10538800321D30F94877825A3CBF737FDD4F15755F
:10539800000000000000F03F000000000000244072
:1053A80000000000000059400000000000408F404D
:1053B800000000000088C34000000000006AF840B8
:1053C8000000000080842E4100000000D0126341DC
:1053D8000000000084D797410000000065CDCD4152
:1053E800000000205FA00242000000E87648374233
:1053F800000000A2941A6D42000040E59C30A242D1
:105408000000901EC4BCD64200003426F56B0C4345
:105418000080E03779C3414300A0D88557347643EC
:1054280000C84E676DC1AB43003D9160E458E1434D
:10543800408CB5781DAF154450EFE2D6E41A4B44C2
:1054480092D54D06CFF08044F64AE1C7022DB54407
:10545800B49DD9794378EA4405000000190000009A
:105468007D000000232D302B2000686C4C00656601
:10547800674546470030313233343536373839419D
:1054880042434445460030313233343536373839B3
:1054980061626364656600002020202020202020AF
:1054A80020282828282820202020202020202020CC
:1054B80020202020202020208810101010101010EC
:1054C8001010101010101010040404040404040434
:1054D80004041010101010101041414141414101C5
:1054E80001010101010101010101010101010101A4
:1054F80001010110101010101042424242424202B3
:105508000202020202020202020202020202020273
:10551800020202101010102000000000000000001D
:105528000000000000000000000000000000000073
:105538000000000000000000000000000000000063
:105548000000000000000000000000000000000053
:105558000000000000000000000000000000000043
:105568000000000000000000000000000000000033
:105578000000000000000000000000000000000023
:105588000000000000000000000000000000000013
:0855980000000000000000000B
:1055A00078563412000200200000000000000000C5
:1055B00000000000010203040607080900A24A04D3
:1055C00001FFFFFF28000020000000000000000095
:1055D00000000000000000000000000000000000CB
:1055E00000000000000000000000000000000000BB
:1055F00000000000000000000000000000000000AB
:10560000000000000000000000000000000000009A
:10561000000000000000000000000000000000008A
:105620000000000000000000430000000000000037
:10563000000000000000000000000000000000006A
:105640000000000000000000430000000000000017
:10565000000000000000000000000000000000004A
:1056600000000000000000004300000000000000F7
:10567000000000000000000000000000000000002A
:1056800000000000000000004300000000000000D7
:10569000000000000000000000000000000000000A
:1056A00000000000000000004300000000000000B7
:1056B00000000000000000000000000000000000EA
:1056C0000000000000000000430000000000000097
:1056D00000000000000000000000000000000000CA
:1056E0000000000000000000430000000000000077
:1056F00000000000000000000000000000000000AA
:1057000000000000000000008D4E00089D3F0008D2
:10571000000000009F5400086853000871540008FE
:105720007154000871540008715400087154000845
:105730007154000871540008715400087154000835
:10574000FFFFFFFFFFFFFFFFFFFFFFFFFFFF000067
:1057500001004153434949000000000000000000DF
:105760000000000000000000000000000000000039
:1057700000004153434949000000000000000000C0
:105780000000000000000000000000000000000019
:0857900000000000325476987D
:040000050800010DE1
:00000001FF
